{
  "_format": "hh-sol-artifact-1",
  "contractName": "PrivateRenovationBudget",
  "sourceName": "contracts/PrivateRenovationBudget.sol",
  "abi": [
    {
      "inputs": [
        {
          "internalType": "address[]",
          "name": "_pauserAddresses",
          "type": "address[]"
        },
        {
          "internalType": "uint256",
          "name": "_kmsGeneration",
          "type": "uint256"
        }
      ],
      "stateMutability": "nonpayable",
      "type": "constructor"
    },
    {
      "inputs": [],
      "name": "HandlesAlreadySavedForRequestID",
      "type": "error"
    },
    {
      "anonymous": false,
      "inputs": [
        {
          "indexed": true,
          "internalType": "uint256",
          "name": "projectId",
          "type": "uint256"
        },
        {
          "indexed": true,
          "internalType": "address",
          "name": "contractor",
          "type": "address"
        }
      ],
      "name": "BidSubmitted",
      "type": "event"
    },
    {
      "anonymous": false,
      "inputs": [
        {
          "indexed": true,
          "internalType": "uint256",
          "name": "projectId",
          "type": "uint256"
        },
        {
          "indexed": true,
          "internalType": "address",
          "name": "homeowner",
          "type": "address"
        }
      ],
      "name": "BudgetCalculated",
      "type": "event"
    },
    {
      "anonymous": false,
      "inputs": [
        {
          "indexed": true,
          "internalType": "address",
          "name": "by",
          "type": "address"
        },
        {
          "indexed": false,
          "internalType": "uint256",
          "name": "timestamp",
          "type": "uint256"
        }
      ],
      "name": "ContractPaused",
      "type": "event"
    },
    {
      "anonymous": false,
      "inputs": [
        {
          "indexed": true,
          "internalType": "address",
          "name": "by",
          "type": "address"
        },
        {
          "indexed": false,
          "internalType": "uint256",
          "name": "timestamp",
          "type": "uint256"
        }
      ],
      "name": "ContractUnpaused",
      "type": "event"
    },
    {
      "anonymous": false,
      "inputs": [
        {
          "indexed": true,
          "internalType": "address",
          "name": "contractor",
          "type": "address"
        }
      ],
      "name": "ContractorVerified",
      "type": "event"
    },
    {
      "anonymous": false,
      "inputs": [
        {
          "indexed": true,
          "internalType": "uint256",
          "name": "requestId",
          "type": "uint256"
        },
        {
          "indexed": true,
          "internalType": "address",
          "name": "requester",
          "type": "address"
        },
        {
          "indexed": false,
          "internalType": "uint256",
          "name": "kmsGeneration",
          "type": "uint256"
        },
        {
          "indexed": false,
          "internalType": "bytes32",
          "name": "encryptedValue",
          "type": "bytes32"
        },
        {
          "indexed": false,
          "internalType": "uint256",
          "name": "timestamp",
          "type": "uint256"
        }
      ],
      "name": "DecryptionRequested",
      "type": "event"
    },
    {
      "anonymous": false,
      "inputs": [
        {
          "indexed": true,
          "internalType": "uint256",
          "name": "requestId",
          "type": "uint256"
        },
        {
          "indexed": true,
          "internalType": "address",
          "name": "kmsNode",
          "type": "address"
        },
        {
          "indexed": false,
          "internalType": "bytes",
          "name": "encryptedShare",
          "type": "bytes"
        },
        {
          "indexed": false,
          "internalType": "bytes",
          "name": "signature",
          "type": "bytes"
        },
        {
          "indexed": false,
          "internalType": "uint256",
          "name": "timestamp",
          "type": "uint256"
        }
      ],
      "name": "DecryptionResponse",
      "type": "event"
    },
    {
      "anonymous": false,
      "inputs": [
        {
          "indexed": false,
          "internalType": "uint256",
          "name": "oldGeneration",
          "type": "uint256"
        },
        {
          "indexed": false,
          "internalType": "uint256",
          "name": "newGeneration",
          "type": "uint256"
        }
      ],
      "name": "KmsGenerationUpdated",
      "type": "event"
    },
    {
      "anonymous": false,
      "inputs": [
        {
          "indexed": true,
          "internalType": "address",
          "name": "pauser",
          "type": "address"
        },
        {
          "indexed": false,
          "internalType": "uint256",
          "name": "timestamp",
          "type": "uint256"
        }
      ],
      "name": "PauserAdded",
      "type": "event"
    },
    {
      "anonymous": false,
      "inputs": [
        {
          "indexed": true,
          "internalType": "address",
          "name": "pauser",
          "type": "address"
        },
        {
          "indexed": false,
          "internalType": "uint256",
          "name": "timestamp",
          "type": "uint256"
        }
      ],
      "name": "PauserRemoved",
      "type": "event"
    },
    {
      "anonymous": false,
      "inputs": [
        {
          "indexed": true,
          "internalType": "uint256",
          "name": "projectId",
          "type": "uint256"
        },
        {
          "indexed": true,
          "internalType": "address",
          "name": "selectedContractor",
          "type": "address"
        }
      ],
      "name": "ProjectApproved",
      "type": "event"
    },
    {
      "anonymous": false,
      "inputs": [
        {
          "indexed": true,
          "internalType": "uint256",
          "name": "projectId",
          "type": "uint256"
        },
        {
          "indexed": true,
          "internalType": "address",
          "name": "homeowner",
          "type": "address"
        }
      ],
      "name": "ProjectCreated",
      "type": "event"
    },
    {
      "anonymous": false,
      "inputs": [
        {
          "indexed": true,
          "internalType": "uint256",
          "name": "projectId",
          "type": "uint256"
        },
        {
          "indexed": false,
          "internalType": "uint8",
          "name": "roomIndex",
          "type": "uint8"
        }
      ],
      "name": "RoomAdded",
      "type": "event"
    },
    {
      "inputs": [
        {
          "internalType": "address",
          "name": "_pauser",
          "type": "address"
        }
      ],
      "name": "addPauser",
      "outputs": [],
      "stateMutability": "nonpayable",
      "type": "function"
    },
    {
      "inputs": [
        {
          "internalType": "uint256",
          "name": "projectId",
          "type": "uint256"
        },
        {
          "internalType": "uint32",
          "name": "area",
          "type": "uint32"
        },
        {
          "internalType": "uint32",
          "name": "materialCost",
          "type": "uint32"
        },
        {
          "internalType": "uint32",
          "name": "laborCost",
          "type": "uint32"
        }
      ],
      "name": "addRoomRequirement",
      "outputs": [],
      "stateMutability": "nonpayable",
      "type": "function"
    },
    {
      "inputs": [
        {
          "internalType": "uint256",
          "name": "projectId",
          "type": "uint256"
        },
        {
          "internalType": "address",
          "name": "selectedContractor",
          "type": "address"
        }
      ],
      "name": "approveProject",
      "outputs": [],
      "stateMutability": "nonpayable",
      "type": "function"
    },
    {
      "inputs": [
        {
          "internalType": "uint256",
          "name": "",
          "type": "uint256"
        },
        {
          "internalType": "address",
          "name": "",
          "type": "address"
        }
      ],
      "name": "bids",
      "outputs": [
        {
          "internalType": "address",
          "name": "contractor",
          "type": "address"
        },
        {
          "internalType": "euint64",
          "name": "bidAmount",
          "type": "bytes32"
        },
        {
          "internalType": "euint32",
          "name": "timeEstimate",
          "type": "bytes32"
        },
        {
          "internalType": "bool",
          "name": "isSubmitted",
          "type": "bool"
        },
        {
          "internalType": "uint256",
          "name": "timestamp",
          "type": "uint256"
        }
      ],
      "stateMutability": "view",
      "type": "function"
    },
    {
      "inputs": [
        {
          "internalType": "uint256",
          "name": "projectId",
          "type": "uint256"
        },
        {
          "internalType": "uint32",
          "name": "contingencyPercent",
          "type": "uint32"
        }
      ],
      "name": "calculateBudget",
      "outputs": [],
      "stateMutability": "nonpayable",
      "type": "function"
    },
    {
      "inputs": [
        {
          "internalType": "uint256",
          "name": "projectId",
          "type": "uint256"
        },
        {
          "internalType": "address",
          "name": "contractor",
          "type": "address"
        }
      ],
      "name": "compareBidWithBudget",
      "outputs": [
        {
          "internalType": "euint64",
          "name": "bidAmount",
          "type": "bytes32"
        },
        {
          "internalType": "euint64",
          "name": "budgetEstimate",
          "type": "bytes32"
        }
      ],
      "stateMutability": "view",
      "type": "function"
    },
    {
      "inputs": [],
      "name": "createProject",
      "outputs": [
        {
          "internalType": "uint256",
          "name": "",
          "type": "uint256"
        }
      ],
      "stateMutability": "nonpayable",
      "type": "function"
    },
    {
      "inputs": [],
      "name": "decryptionRequestCounter",
      "outputs": [
        {
          "internalType": "uint256",
          "name": "",
          "type": "uint256"
        }
      ],
      "stateMutability": "view",
      "type": "function"
    },
    {
      "inputs": [
        {
          "internalType": "uint256",
          "name": "",
          "type": "uint256"
        }
      ],
      "name": "decryptionRequests",
      "outputs": [
        {
          "internalType": "uint256",
          "name": "requestId",
          "type": "uint256"
        },
        {
          "internalType": "address",
          "name": "requester",
          "type": "address"
        },
        {
          "internalType": "bytes32",
          "name": "encryptedValue",
          "type": "bytes32"
        },
        {
          "internalType": "uint256",
          "name": "timestamp",
          "type": "uint256"
        },
        {
          "internalType": "bool",
          "name": "fulfilled",
          "type": "bool"
        },
        {
          "internalType": "uint256",
          "name": "kmsGeneration",
          "type": "uint256"
        }
      ],
      "stateMutability": "view",
      "type": "function"
    },
    {
      "inputs": [],
      "name": "getAllPausers",
      "outputs": [
        {
          "internalType": "address[]",
          "name": "",
          "type": "address[]"
        }
      ],
      "stateMutability": "view",
      "type": "function"
    },
    {
      "inputs": [
        {
          "internalType": "uint256",
          "name": "projectId",
          "type": "uint256"
        }
      ],
      "name": "getBudgetEstimate",
      "outputs": [
        {
          "internalType": "euint64",
          "name": "totalBudget",
          "type": "bytes32"
        },
        {
          "internalType": "euint64",
          "name": "finalEstimate",
          "type": "bytes32"
        }
      ],
      "stateMutability": "view",
      "type": "function"
    },
    {
      "inputs": [
        {
          "internalType": "uint256",
          "name": "projectId",
          "type": "uint256"
        },
        {
          "internalType": "address",
          "name": "contractor",
          "type": "address"
        }
      ],
      "name": "getContractorBid",
      "outputs": [
        {
          "internalType": "euint64",
          "name": "bidAmount",
          "type": "bytes32"
        },
        {
          "internalType": "euint32",
          "name": "timeEstimate",
          "type": "bytes32"
        },
        {
          "internalType": "bool",
          "name": "isSubmitted",
          "type": "bool"
        },
        {
          "internalType": "uint256",
          "name": "timestamp",
          "type": "uint256"
        }
      ],
      "stateMutability": "nonpayable",
      "type": "function"
    },
    {
      "inputs": [
        {
          "internalType": "uint256",
          "name": "_requestId",
          "type": "uint256"
        }
      ],
      "name": "getDecryptionRequest",
      "outputs": [
        {
          "internalType": "address",
          "name": "requester",
          "type": "address"
        },
        {
          "internalType": "bytes32",
          "name": "encryptedValue",
          "type": "bytes32"
        },
        {
          "internalType": "uint256",
          "name": "timestamp",
          "type": "uint256"
        },
        {
          "internalType": "bool",
          "name": "fulfilled",
          "type": "bool"
        },
        {
          "internalType": "uint256",
          "name": "generation",
          "type": "uint256"
        }
      ],
      "stateMutability": "view",
      "type": "function"
    },
    {
      "inputs": [
        {
          "internalType": "uint256",
          "name": "_index",
          "type": "uint256"
        }
      ],
      "name": "getPauserAtIndex",
      "outputs": [
        {
          "internalType": "address",
          "name": "",
          "type": "address"
        }
      ],
      "stateMutability": "view",
      "type": "function"
    },
    {
      "inputs": [],
      "name": "getPauserCount",
      "outputs": [
        {
          "internalType": "uint256",
          "name": "",
          "type": "uint256"
        }
      ],
      "stateMutability": "view",
      "type": "function"
    },
    {
      "inputs": [
        {
          "internalType": "uint256",
          "name": "projectId",
          "type": "uint256"
        }
      ],
      "name": "getProjectContractors",
      "outputs": [
        {
          "internalType": "address[]",
          "name": "",
          "type": "address[]"
        }
      ],
      "stateMutability": "view",
      "type": "function"
    },
    {
      "inputs": [
        {
          "internalType": "uint256",
          "name": "projectId",
          "type": "uint256"
        }
      ],
      "name": "getProjectInfo",
      "outputs": [
        {
          "internalType": "address",
          "name": "homeowner",
          "type": "address"
        },
        {
          "internalType": "bool",
          "name": "isCalculated",
          "type": "bool"
        },
        {
          "internalType": "bool",
          "name": "isApproved",
          "type": "bool"
        },
        {
          "internalType": "uint256",
          "name": "timestamp",
          "type": "uint256"
        },
        {
          "internalType": "uint8",
          "name": "roomCount",
          "type": "uint8"
        },
        {
          "internalType": "uint256",
          "name": "bidCount",
          "type": "uint256"
        }
      ],
      "stateMutability": "view",
      "type": "function"
    },
    {
      "inputs": [],
      "name": "isContractPaused",
      "outputs": [
        {
          "internalType": "bool",
          "name": "",
          "type": "bool"
        }
      ],
      "stateMutability": "view",
      "type": "function"
    },
    {
      "inputs": [],
      "name": "isPaused",
      "outputs": [
        {
          "internalType": "bool",
          "name": "",
          "type": "bool"
        }
      ],
      "stateMutability": "view",
      "type": "function"
    },
    {
      "inputs": [
        {
          "internalType": "address",
          "name": "_address",
          "type": "address"
        }
      ],
      "name": "isPauser",
      "outputs": [
        {
          "internalType": "bool",
          "name": "",
          "type": "bool"
        }
      ],
      "stateMutability": "view",
      "type": "function"
    },
    {
      "inputs": [
        {
          "internalType": "address",
          "name": "",
          "type": "address"
        }
      ],
      "name": "isPauserAddress",
      "outputs": [
        {
          "internalType": "bool",
          "name": "",
          "type": "bool"
        }
      ],
      "stateMutability": "view",
      "type": "function"
    },
    {
      "inputs": [
        {
          "internalType": "uint256",
          "name": "projectId",
          "type": "uint256"
        }
      ],
      "name": "isProjectApproved",
      "outputs": [
        {
          "internalType": "bool",
          "name": "",
          "type": "bool"
        }
      ],
      "stateMutability": "view",
      "type": "function"
    },
    {
      "inputs": [
        {
          "internalType": "uint256",
          "name": "projectId",
          "type": "uint256"
        }
      ],
      "name": "isProjectCalculated",
      "outputs": [
        {
          "internalType": "bool",
          "name": "",
          "type": "bool"
        }
      ],
      "stateMutability": "view",
      "type": "function"
    },
    {
      "inputs": [
        {
          "internalType": "uint256",
          "name": "projectId",
          "type": "uint256"
        }
      ],
      "name": "isProjectValid",
      "outputs": [
        {
          "internalType": "bool",
          "name": "",
          "type": "bool"
        }
      ],
      "stateMutability": "view",
      "type": "function"
    },
    {
      "inputs": [],
      "name": "isPublicDecryptAllowed",
      "outputs": [
        {
          "internalType": "bool",
          "name": "",
          "type": "bool"
        }
      ],
      "stateMutability": "view",
      "type": "function"
    },
    {
      "inputs": [],
      "name": "kmsGeneration",
      "outputs": [
        {
          "internalType": "uint256",
          "name": "",
          "type": "uint256"
        }
      ],
      "stateMutability": "view",
      "type": "function"
    },
    {
      "inputs": [],
      "name": "nextProjectId",
      "outputs": [
        {
          "internalType": "uint256",
          "name": "",
          "type": "uint256"
        }
      ],
      "stateMutability": "view",
      "type": "function"
    },
    {
      "inputs": [],
      "name": "owner",
      "outputs": [
        {
          "internalType": "address",
          "name": "",
          "type": "address"
        }
      ],
      "stateMutability": "view",
      "type": "function"
    },
    {
      "inputs": [],
      "name": "pause",
      "outputs": [],
      "stateMutability": "nonpayable",
      "type": "function"
    },
    {
      "inputs": [
        {
          "internalType": "uint256",
          "name": "",
          "type": "uint256"
        }
      ],
      "name": "pauserAddresses",
      "outputs": [
        {
          "internalType": "address",
          "name": "",
          "type": "address"
        }
      ],
      "stateMutability": "view",
      "type": "function"
    },
    {
      "inputs": [
        {
          "internalType": "uint256",
          "name": "requestId",
          "type": "uint256"
        },
        {
          "internalType": "uint64",
          "name": "decryptedBudget",
          "type": "uint64"
        },
        {
          "internalType": "bytes[]",
          "name": "signatures",
          "type": "bytes[]"
        }
      ],
      "name": "processBudgetReveal",
      "outputs": [],
      "stateMutability": "nonpayable",
      "type": "function"
    },
    {
      "inputs": [
        {
          "internalType": "uint256",
          "name": "",
          "type": "uint256"
        },
        {
          "internalType": "uint256",
          "name": "",
          "type": "uint256"
        }
      ],
      "name": "projectContractors",
      "outputs": [
        {
          "internalType": "address",
          "name": "",
          "type": "address"
        }
      ],
      "stateMutability": "view",
      "type": "function"
    },
    {
      "inputs": [
        {
          "internalType": "uint256",
          "name": "",
          "type": "uint256"
        }
      ],
      "name": "projects",
      "outputs": [
        {
          "internalType": "address",
          "name": "homeowner",
          "type": "address"
        },
        {
          "internalType": "euint64",
          "name": "totalBudget",
          "type": "bytes32"
        },
        {
          "internalType": "euint32",
          "name": "contingencyPercent",
          "type": "bytes32"
        },
        {
          "internalType": "euint64",
          "name": "finalEstimate",
          "type": "bytes32"
        },
        {
          "internalType": "bool",
          "name": "isCalculated",
          "type": "bool"
        },
        {
          "internalType": "bool",
          "name": "isApproved",
          "type": "bool"
        },
        {
          "internalType": "uint256",
          "name": "timestamp",
          "type": "uint256"
        },
        {
          "internalType": "uint8",
          "name": "roomCount",
          "type": "uint8"
        }
      ],
      "stateMutability": "view",
      "type": "function"
    },
    {
      "inputs": [],
      "name": "protocolId",
      "outputs": [
        {
          "internalType": "uint256",
          "name": "",
          "type": "uint256"
        }
      ],
      "stateMutability": "pure",
      "type": "function"
    },
    {
      "inputs": [
        {
          "internalType": "address",
          "name": "_pauser",
          "type": "address"
        }
      ],
      "name": "removePauser",
      "outputs": [],
      "stateMutability": "nonpayable",
      "type": "function"
    },
    {
      "inputs": [
        {
          "internalType": "uint256",
          "name": "projectId",
          "type": "uint256"
        }
      ],
      "name": "requestBudgetDecryption",
      "outputs": [],
      "stateMutability": "nonpayable",
      "type": "function"
    },
    {
      "inputs": [
        {
          "internalType": "bytes32",
          "name": "_encryptedValue",
          "type": "bytes32"
        }
      ],
      "name": "requestDecryption",
      "outputs": [
        {
          "internalType": "uint256",
          "name": "",
          "type": "uint256"
        }
      ],
      "stateMutability": "nonpayable",
      "type": "function"
    },
    {
      "inputs": [
        {
          "internalType": "uint256",
          "name": "projectId",
          "type": "uint256"
        },
        {
          "internalType": "uint64",
          "name": "bidAmount",
          "type": "uint64"
        },
        {
          "internalType": "uint32",
          "name": "timeEstimate",
          "type": "uint32"
        }
      ],
      "name": "submitBid",
      "outputs": [],
      "stateMutability": "nonpayable",
      "type": "function"
    },
    {
      "inputs": [
        {
          "internalType": "uint256",
          "name": "_requestId",
          "type": "uint256"
        },
        {
          "internalType": "bytes",
          "name": "_encryptedShare",
          "type": "bytes"
        },
        {
          "internalType": "bytes",
          "name": "_signature",
          "type": "bytes"
        }
      ],
      "name": "submitDecryptionResponse",
      "outputs": [],
      "stateMutability": "nonpayable",
      "type": "function"
    },
    {
      "inputs": [],
      "name": "unpause",
      "outputs": [],
      "stateMutability": "nonpayable",
      "type": "function"
    },
    {
      "inputs": [
        {
          "internalType": "uint256",
          "name": "_newGeneration",
          "type": "uint256"
        }
      ],
      "name": "updateKmsGeneration",
      "outputs": [],
      "stateMutability": "nonpayable",
      "type": "function"
    },
    {
      "inputs": [
        {
          "internalType": "address",
          "name": "",
          "type": "address"
        }
      ],
      "name": "verifiedContractors",
      "outputs": [
        {
          "internalType": "bool",
          "name": "",
          "type": "bool"
        }
      ],
      "stateMutability": "view",
      "type": "function"
    },
    {
      "inputs": [
        {
          "internalType": "address",
          "name": "contractor",
          "type": "address"
        }
      ],
      "name": "verifyContractor",
      "outputs": [],
      "stateMutability": "nonpayable",
      "type": "function"
    }
  ],
  "bytecode": "0x60806040523480156200001157600080fd5b50604051620030c8380380620030c8833981016040819052620000349162000338565b620001b1620000d5604080516080810182526000808252602082018190529181018290526060810191909152506040805160808101825273687820221192c5b662b25367f70076a37bc79b6c815273848b0066793bcc60346da1f49049357399b8d595602082015273a02cda4ca3a71d7c46997716f4283aa851c2881291810191909152731364cbbf2cdf5032c47d8226a6f6fbd2afcdacac606082015290565b80517f9e7b61f58c47dc699ac88507c4f5bb9f121c03808c5676a8078fe583e464970080546001600160a01b03199081166001600160a01b039384161790915560208301517f9e7b61f58c47dc699ac88507c4f5bb9f121c03808c5676a8078fe583e46497018054831691841691909117905560408301517f9e7b61f58c47dc699ac88507c4f5bb9f121c03808c5676a8078fe583e46497028054831691841691909117905560608301517f9e7b61f58c47dc699ac88507c4f5bb9f121c03808c5676a8078fe583e46497038054909216921691909117905550565b600080546001600160a01b031916331781556001805560028290556004805460ff1916905560068190555b8251811015620002fc576003838281518110620001fd57620001fd62000412565b60209081029190910181015182546001808201855560009485529284200180546001600160a01b0319166001600160a01b039092169190911790558451909160059186908590811062000254576200025462000412565b60200260200101516001600160a01b03166001600160a01b0316815260200190815260200160002060006101000a81548160ff021916908315150217905550828181518110620002a857620002a862000412565b60200260200101516001600160a01b03167f0ad15ebec79c7d7b2785c7b5d8a7df78be193da0f65dff2d7c539a0992d53e3742604051620002eb91815260200190565b60405180910390a2600101620001dc565b50505062000428565b634e487b7160e01b600052604160045260246000fd5b80516001600160a01b03811681146200033357600080fd5b919050565b600080604083850312156200034c57600080fd5b82516001600160401b03808211156200036457600080fd5b818501915085601f8301126200037957600080fd5b815160208282111562000390576200039062000305565b8160051b604051601f19603f83011681018181108682111715620003b857620003b862000305565b604052928352818301935084810182019289841115620003d757600080fd5b948201945b838610156200040057620003f0866200031b565b85529482019493820193620003dc565b97909101519698969750505050505050565b634e487b7160e01b600052603260045260246000fd5b612c9080620004386000396000f3fe608060405234801561001057600080fd5b50600436106102695760003560e01c806391136b6511610151578063c84cd8c0116100c3578063dcff660b11610087578063dcff660b146107a4578063e513af60146107b7578063e935b7b1146107c0578063f0333766146107c9578063f4ab2928146107d1578063fabf5968146107dc57600080fd5b8063c84cd8c0146106c9578063d3722d01146106dc578063da1f12ab14610766578063dc7a72e71461076e578063dcaee5021461078157600080fd5b8063b1506f1f11610115578063b1506f1f14610662578063b187bd2614610675578063bf7b7a2914610682578063c331ea52146106a2578063c7b96dba146106b5578063c801d758146106bd57600080fd5b806391136b65146105d5578063932dcacf146105dd57806399e0be1e1461061657806399f2178f14610629578063a4797d0f1461064f57600080fd5b80634d479584116101ea57806377a5ebbd116101ae57806377a5ebbd1461051b5780637adfe96e1461056957806382dc1ec41461057c5780638456cb591461058f5780638da5cb5b146105975780638ec35734146105aa57600080fd5b80634d479584146104a05780636b2c0f55146104c15780636c88163f146104d45780636d8d2c6d146104ff5780637499888f1461050857600080fd5b80633ee6f7cd116102315780633ee6f7cd146103a85780633f1ffcec146103bb5780633f4ba83a1461044457806346fbf68e1461044c57806347a305561461047857600080fd5b8063026fef7f1461026e57806304cf20231461029e57806309f8fd23146102b3578063107046bd146102c65780633cdc568b14610375575b600080fd5b61028161027c3660046125ab565b610879565b6040516001600160a01b0390911681526020015b60405180910390f35b6102b16102ac3660046125f5565b6108a3565b005b6102b16102c13660046125ab565b610b95565b6103296102d43660046125ab565b60076020526000908152604090208054600182015460028301546003840154600485015460058601546006909601546001600160a01b039095169593949293919260ff80831693610100909304811692911688565b604080516001600160a01b039099168952602089019790975295870194909452606086019290925215156080850152151560a084015260c083015260ff1660e082015261010001610295565b610398610383366004612648565b600a6020526000908152604090205460ff1681565b6040519015158152602001610295565b6102b16103b6366004612663565b610c8b565b6104106103c93660046126b0565b6008602090815260009283526040808420909152908252902080546001820154600283015460038401546004909401546001600160a01b03909316939192909160ff169085565b604080516001600160a01b03909616865260208601949094529284019190915215156060830152608082015260a001610295565b6102b1610ef8565b61039861045a366004612648565b6001600160a01b031660009081526005602052604090205460ff1690565b61048b6104863660046126b0565b610fa3565b60408051928352602083019190915201610295565b6104b36104ae3660046125ab565b6110b8565b604051908152602001610295565b6102b16104cf366004612648565b6111f7565b6103986104e23660046125ab565b600090815260076020526040902060040154610100900460ff1690565b6104b360065481565b6102b1610516366004612725565b6113db565b6104106105293660046125ab565b6000908152600b6020526040902060018101546002820154600383015460048401546005909401546001600160a01b03909316949193909260ff90911691565b6102816105773660046125ab565b61147b565b6102b161058a366004612648565b6114f3565b6102b161165e565b600054610281906001600160a01b031681565b6103986105b83660046125ab565b6000908152600760205260409020546001600160a01b0316151590565b6003546104b3565b6105f06105eb3660046126b0565b611731565b604080519485526020850193909352901515918301919091526060820152608001610295565b6102b16106243660046127e6565b611830565b6103986106373660046125ab565b60009081526007602052604090206004015460ff1690565b61048b61065d3660046125ab565b611858565b610281610670366004612919565b6118e3565b6004546103989060ff1681565b6106956106903660046125ab565b61191b565b604051610295919061293b565b6102b16106b03660046126b0565b611987565b6104b3611b2d565b60045460ff1615610398565b6102b16106d73660046125ab565b611bdc565b61072f6106ea3660046125ab565b600b6020526000908152604090208054600182015460028301546003840154600485015460059095015493946001600160a01b03909316939192909160ff9091169086565b604080519687526001600160a01b0390951660208701529385019290925260608401521515608083015260a082015260c001610295565b6127116104b3565b6102b161077c366004612648565b611c4b565b61039861078f366004612648565b60056020526000908152604090205460ff1681565b6102b16107b2366004612988565b611ce4565b6104b360025481565b6104b360015481565b610695611f9b565b60045460ff16610398565b61083a6107ea3660046125ab565b6000908152600760209081526040808320805460048201546005830154600690930154600990955292909420546001600160a01b039094169460ff80841695610100909404811694929392169190565b604080516001600160a01b039097168752941515602087015292151593850193909352606084015260ff909116608083015260a082015260c001610295565b6003818154811061088957600080fd5b6000918252602090912001546001600160a01b0316905081565b336000908152600a602052604090205460ff166109075760405162461bcd60e51b815260206004820152601760248201527f4e6f7420766572696669656420636f6e74726163746f7200000000000000000060448201526064015b60405180910390fd5b60045460ff161561092a5760405162461bcd60e51b81526004016108fe906129ab565b60008381526007602052604090206004015460ff1661095b5760405162461bcd60e51b81526004016108fe906129d7565b600083815260076020526040902060040154610100900460ff16156109c25760405162461bcd60e51b815260206004820152601860248201527f50726f6a65637420616c726561647920617070726f766564000000000000000060448201526064016108fe565b600083815260086020908152604080832033845290915290206003015460ff1615610a275760405162461bcd60e51b8152602060048201526015602482015274109a5908185b1c9958591e481cdd589b5a5d1d1959605a1b60448201526064016108fe565b6000610a3283611ffd565b90506000610a3f8361201a565b6040805160a081018252338082526020808301878152838501868152600160608601818152426080880190815260008f8152600887528981208882528752898120985189546001600160a01b03919091166001600160a01b0319918216178a5595518985015593516002890155905160038801805491151560ff19909216919091179055516004909601959095558b815260098352948520805494850181558552932090910180549092161790559050610af88261202d565b50610b028161202d565b50610b0d823361203d565b50610b18813361203d565b50600085815260076020526040902054610b3c9083906001600160a01b031661203d565b50600085815260076020526040902054610b609082906001600160a01b031661203d565b50604051339086907f14f32a2464bd02d81cc866ab8a4ab09360c685fc8156837dcdf398208674d12b90600090a35050505050565b60008181526007602052604090205481906001600160a01b03163314610bcd5760405162461bcd60e51b81526004016108fe90612a07565b60045460ff1615610bf05760405162461bcd60e51b81526004016108fe906129ab565b60008281526007602052604090206004015460ff16610c215760405162461bcd60e51b81526004016108fe906129d7565b604080516001808252818301909252600091602080830190803683370190505060008481526007602052604090206003015490915081600081518110610c6957610c69612a32565b6020908102919091010152610c8581634cf05f0f60e11b612050565b50505050565b60008481526007602052604090205484906001600160a01b03163314610cc35760405162461bcd60e51b81526004016108fe90612a07565b60045460ff1615610ce65760405162461bcd60e51b81526004016108fe906129ab565b60008581526007602052604090206004015460ff1615610d485760405162461bcd60e51b815260206004820152601a60248201527f50726f6a65637420616c72656164792063616c63756c6174656400000000000060448201526064016108fe565b600085815260076020526040902060060154601460ff90911610610dae5760405162461bcd60e51b815260206004820152601860248201527f4d6178696d756d20323020726f6f6d7320616c6c6f776564000000000000000060448201526064016108fe565b6000610db98561201a565b90506000610dc68561201a565b90506000610dd38561201a565b600089815260076020818152604080842060068101805483516080810185528b81528086018b81528186018a815260016060840181815260ff958616808d52978b018a52978b209351845591519183019190915551600282015593516003909401805460ff1916941515949094179093558e865293909252825494955090931691610e5d83612a5e565b91906101000a81548160ff021916908360ff16021790555050610e7f8461202d565b50610e898361202d565b50610e938261202d565b50610e9e843361203d565b50610ea9833361203d565b50610eb4823361203d565b5060405160ff8216815289907f1c7d38f1517631c293fa2a5ccae29297e15d7d9d131e0e5793b84e1603a1b8b29060200160405180910390a2505050505050505050565b6000546001600160a01b03163314610f225760405162461bcd60e51b81526004016108fe90612a7d565b60045460ff16610f615760405162461bcd60e51b815260206004820152600a602482015269139bdd081c185d5cd95960b21b60448201526064016108fe565b6004805460ff1916905560405142815233907f107553d8191d85b405879cf752997865edd48d94e20bda4dd27223c94b31a7cc906020015b60405180910390a2565b600082815260076020526040812054819084906001600160a01b03163314610fdd5760405162461bcd60e51b81526004016108fe90612a07565b60008581526007602052604090206004015460ff1661100e5760405162461bcd60e51b81526004016108fe906129d7565b60008581526008602090815260408083206001600160a01b038816845290915290206003015460ff1661107c5760405162461bcd60e51b81526020600482015260166024820152752737903134b210333937b69031b7b73a3930b1ba37b960511b60448201526064016108fe565b50505060008281526008602090815260408083206001600160a01b03949094168352928152828220600101549382526007905220600301549091565b6000600180546110c89190612aa5565b6000818152600760205260409020546001600160a01b031633146110fe5760405162461bcd60e51b81526004016108fe90612a07565b600060066000815461110f90612ab8565b91829055506040805160c0810182528281523360208083018281528385018a81524260608087018281526000608089018181526002805460a08c019081528d8452600b8a52928c90209a518b55965160018b0180546001600160a01b0319166001600160a01b0390921691909117905594518987015590516003890155925160048801805460ff19169115159190911790559151600590960195909555905485519081529182018a90529381019290925292935083917f5b585d7dd6e029cb6fdb2ed1aab57d9595373d52232357d506198068a075e7d0910160405180910390a39392505050565b6000546001600160a01b031633146112215760405162461bcd60e51b81526004016108fe90612a7d565b6001600160a01b03811660009081526005602052604090205460ff166112785760405162461bcd60e51b815260206004820152600c60248201526b2737ba1030903830bab9b2b960a11b60448201526064016108fe565b6001600160a01b0381166000908152600560205260408120805460ff191690555b60035481101561139457816001600160a01b0316600382815481106112c0576112c0612a32565b6000918252602090912001546001600160a01b03160361138c57600380546112ea90600190612aa5565b815481106112fa576112fa612a32565b600091825260209091200154600380546001600160a01b03909216918390811061132657611326612a32565b9060005260206000200160006101000a8154816001600160a01b0302191690836001600160a01b03160217905550600380548061136557611365612ad1565b600082815260209020810160001990810180546001600160a01b0319169055019055611394565b600101611299565b50806001600160a01b03167f09d663ecc0eac31928bc933e50d7b947f6c93e150383c8c0b317c437a0f0a12d426040516113d091815260200190565b60405180910390a250565b6000858152600b6020526040902054851461142a5760405162461bcd60e51b815260206004820152600f60248201526e125b9d985b1a59081c995c5d595cdd608a1b60448201526064016108fe565b336001600160a01b0316857f7c928c5fcc307a0be08cab90a20b1e1233adb2226579e4118fb62ee51801318f868686864260405161146c959493929190612b10565b60405180910390a35050505050565b60035460009082106114c55760405162461bcd60e51b8152602060048201526013602482015272496e646578206f7574206f6620626f756e647360681b60448201526064016108fe565b600382815481106114d8576114d8612a32565b6000918252602090912001546001600160a01b031692915050565b6000546001600160a01b0316331461151d5760405162461bcd60e51b81526004016108fe90612a7d565b6001600160a01b03811661156c5760405162461bcd60e51b8152602060048201526016602482015275496e76616c696420706175736572206164647265737360501b60448201526064016108fe565b6001600160a01b03811660009081526005602052604090205460ff16156115c85760405162461bcd60e51b815260206004820152601060248201526f20b63932b0b23c9030903830bab9b2b960811b60448201526064016108fe565b6003805460018082019092557fc2575a0e9e593c00f959f8c92f12db2869c3395a3b0502d05e2516446f71f85b0180546001600160a01b0319166001600160a01b038416908117909155600081815260056020908152604091829020805460ff19169094179093555142815290917f0ad15ebec79c7d7b2785c7b5d8a7df78be193da0f65dff2d7c539a0992d53e3791016113d0565b3360009081526005602052604090205460ff166116ac5760405162461bcd60e51b815260206004820152600c60248201526b2737ba1030903830bab9b2b960a11b60448201526064016108fe565b60045460ff16156116f05760405162461bcd60e51b815260206004820152600e60248201526d105b1c9958591e481c185d5cd95960921b60448201526064016108fe565b6004805460ff1916600117905560405133907f80170b5fcdd2bf1e0660ef4b8851f86685f64d41b1a19de1471947ece8725aac90610f999042815260200190565b6000808080336001600160a01b038616148061176357506000868152600760205260409020546001600160a01b031633145b6117af5760405162461bcd60e51b815260206004820152601a60248201527f4e6f7420617574686f72697a656420746f20766965772062696400000000000060448201526064016108fe565b60008681526008602090815260408083206001600160a01b03891684529091529020600381015460ff161561180657600181015460028201546003830154600490930154919650945060ff90911692509050611827565b6118106000611ffd565b61181a600061201a565b6000809450945094509450505b92959194509250565b60045460ff16156118535760405162461bcd60e51b81526004016108fe906129ab565b505050565b600081815260076020526040812054819083906001600160a01b031633146118925760405162461bcd60e51b81526004016108fe90612a07565b60008481526007602052604090206004015460ff166118c35760405162461bcd60e51b81526004016108fe906129d7565b505050600090815260076020526040902060018101546003909101549091565b600960205281600052604060002081815481106118ff57600080fd5b6000918252602090912001546001600160a01b03169150829050565b60008181526009602090815260409182902080548351818402810184019094528084526060939283018282801561197b57602002820191906000526020600020905b81546001600160a01b0316815260019091019060200180831161195d575b50505050509050919050565b60008281526007602052604090205482906001600160a01b031633146119bf5760405162461bcd60e51b81526004016108fe90612a07565b60045460ff16156119e25760405162461bcd60e51b81526004016108fe906129ab565b60008381526007602052604090206004015460ff16611a135760405162461bcd60e51b81526004016108fe906129d7565b600083815260076020526040902060040154610100900460ff1615611a6d5760405162461bcd60e51b815260206004820152601060248201526f105b1c9958591e48185c1c1c9bdd995960821b60448201526064016108fe565b60008381526008602090815260408083206001600160a01b038616845290915290206003015460ff16611ad75760405162461bcd60e51b815260206004820152601260248201527124b73b30b634b21031b7b73a3930b1ba37b960711b60448201526064016108fe565b600083815260076020526040808220600401805461ff001916610100179055516001600160a01b0384169185917fae45c6260346930c9824dfa2888d501cfd9372f592303b38f7788326fc22f0169190a3505050565b60045460009060ff1615611b535760405162461bcd60e51b81526004016108fe906129ab565b6001805460009182611b6483612ab8565b9091555060008181526007602052604080822080546001600160a01b03191633908117825560048201805461ffff1916905542600583015560068201805460ff19169055915193945092909184917f63c92f9505d420bff631cb9df33be952bdc11e2118da36a850b43e6bcc4ce4de9190a350905090565b6000546001600160a01b03163314611c065760405162461bcd60e51b81526004016108fe90612a7d565b600280549082905560408051828152602081018490527f81a4fe1759d58af96859f5799571b46cb438e5215a188511956a062695eb027c910160405180910390a15050565b6000546001600160a01b03163314611c755760405162461bcd60e51b81526004016108fe90612a7d565b60045460ff1615611c985760405162461bcd60e51b81526004016108fe906129ab565b6001600160a01b0381166000818152600a6020526040808220805460ff19166001179055517f7ce8ebb8001497435419dd3fdc9b078e89d82274294b483abf7871cc76eb5d119190a250565b60008281526007602052604090205482906001600160a01b03163314611d1c5760405162461bcd60e51b81526004016108fe90612a07565b60045460ff1615611d3f5760405162461bcd60e51b81526004016108fe906129ab565b60008381526007602052604090206006015460ff16611d915760405162461bcd60e51b815260206004820152600e60248201526d139bc81c9bdbdb5cc8185919195960921b60448201526064016108fe565b60008381526007602052604090206004015460ff1615611de85760405162461bcd60e51b8152602060048201526012602482015271105b1c9958591e4818d85b18dd5b185d195960721b60448201526064016108fe565b60328263ffffffff161115611e365760405162461bcd60e51b8152602060048201526014602482015273086dedce8d2dccecadcc6f240e8dede40d0d2ced60631b60448201526064016108fe565b600083815260076020526040812090611e4e81611ffd565b905060005b600683015460ff9081169082161015611ef25760ff80821660009081526007850160205260409020600301541615611eea5760ff8116600090815260078401602052604081206001810154600290910154611eae9190612065565b60ff8316600090815260078601602052604081205491925090611ed19083612097565b9050611ee584611ee0836120c9565b6120d6565b935050505b600101611e53565b506000611efe8561201a565b6001808501849055600285018290556003850184905560048501805460ff19169091179055905081611f2f8161202d565b50611f398261202d565b50611f438161202d565b50611f4e833361203d565b50611f59823361203d565b50611f64813361203d565b50604051339088907f1a4eb110eef8d10da2cec58e080c731275160b36314d3503f1b6f62e28524d2390600090a350505050505050565b60606003805480602002602001604051908101604052809291908181526020018280548015611ff357602002820191906000526020600020905b81546001600160a01b03168152600190910190602001808311611fd5575b5050505050905090565b60006120148267ffffffffffffffff1660056120f9565b92915050565b60006120148263ffffffff1660046120f9565b60006120398230612196565b5090565b60006120498383612196565b5090919050565b600061205e83836000612213565b9392505050565b60008261207957612076600061201a565b92505b8161208b57612088600061201a565b91505b61205e83836000612339565b6000826120ab576120a8600061201a565b92505b816120bd576120ba600061201a565b91505b61205e838360006123fd565b6000612014826005612478565b6000826120ea576120e76000611ffd565b92505b8161208b576120886000611ffd565b600080516020612c1b83398151915254604051639cd07acb60e01b8152600091600080516020612c3b833981519152916001600160a01b0390911690639cd07acb9061214b9087908790600401612b6c565b6020604051808303816000875af115801561216a573d6000803e3d6000fd5b505050506040513d601f19601f8201168201806040525081019061218e9190612b80565b949350505050565b6000600080516020612c3b8339815191528054604051635ca4b5b160e11b8152600481018690526001600160a01b03858116602483015292935091169063b9496b6290604401600060405180830381600087803b1580156121f657600080fd5b505af115801561220a573d6000803e3d6000fd5b50505050505050565b7f878245876662ba28a480c5ea71726db859fb50222b0a3d7cbbc21cfa336faf008054600080516020612c3b8339815191528054604051637d6e912360e11b81529293926001600160a01b039091169063fadd224690612277908990600401612bd5565b600060405180830381600087803b15801561229157600080fd5b505af11580156122a5573d6000803e3d6000fd5b5050506002820154604051633263b83b60e01b81526001600160a01b039091169150633263b83b9086906122e19087908b908b90600401612be8565b6000604051808303818588803b1580156122fa57600080fd5b505af115801561230e573d6000803e3d6000fd5b505050505061231d83876124ca565b815482600061232b83612ab8565b919050555050509392505050565b600080821561234d5750600160f81b612351565b5060005b600080516020612c1b8339815191525460405163022f65e760e31b815260048101879052602481018690526001600160f81b031983166044820152600080516020612c3b833981519152916001600160a01b03169063117b2f38906064015b6020604051808303816000875af11580156123cf573d6000803e3d6000fd5b505050506040513d601f19601f820116820180604052508101906123f39190612b80565b9695505050505050565b60008082156124115750600160f81b612415565b5060005b600080516020612c1b83398151915254604051630afe14ad60e31b815260048101879052602481018690526001600160f81b031983166044820152600080516020612c3b833981519152916001600160a01b0316906357f0a568906064016123b0565b600080516020612c1b833981519152546040516307227b9160e21b8152600091600080516020612c3b833981519152916001600160a01b0390911690631c89ee449061214b9087908790600401612b6c565b60008281527f878245876662ba28a480c5ea71726db859fb50222b0a3d7cbbc21cfa336faf0160205260409020547f878245876662ba28a480c5ea71726db859fb50222b0a3d7cbbc21cfa336faf00901561253857604051633f06d22b60e01b815260040160405180910390fd5b600083815260018201602090815260409091208351610c859285019082805482825590600052602060002090810192821561258f579160200282015b8281111561258f578251825591602001919060010190612574565b506120399291505b808211156120395760008155600101612597565b6000602082840312156125bd57600080fd5b5035919050565b803567ffffffffffffffff811681146125dc57600080fd5b919050565b803563ffffffff811681146125dc57600080fd5b60008060006060848603121561260a57600080fd5b8335925061261a602085016125c4565b9150612628604085016125e1565b90509250925092565b80356001600160a01b03811681146125dc57600080fd5b60006020828403121561265a57600080fd5b61205e82612631565b6000806000806080858703121561267957600080fd5b84359350612689602086016125e1565b9250612697604086016125e1565b91506126a5606086016125e1565b905092959194509250565b600080604083850312156126c357600080fd5b823591506126d360208401612631565b90509250929050565b60008083601f8401126126ee57600080fd5b50813567ffffffffffffffff81111561270657600080fd5b60208301915083602082850101111561271e57600080fd5b9250929050565b60008060008060006060868803121561273d57600080fd5b85359450602086013567ffffffffffffffff8082111561275c57600080fd5b61276889838a016126dc565b9096509450604088013591508082111561278157600080fd5b5061278e888289016126dc565b969995985093965092949392505050565b634e487b7160e01b600052604160045260246000fd5b604051601f8201601f1916810167ffffffffffffffff811182821017156127de576127de61279f565b604052919050565b6000806000606084860312156127fb57600080fd5b83359250602061280c8186016125c4565b925060408086013567ffffffffffffffff8082111561282a57600080fd5b818801915088601f83011261283e57600080fd5b8135818111156128505761285061279f565b8060051b61285f8682016127b5565b918252838101860191868101908c84111561287957600080fd5b87860192505b83831015612907578235858111156128975760008081fd5b8601603f81018e136128a95760008081fd5b88810135868111156128bd576128bd61279f565b6128cf601f8201601f19168b016127b5565b8181528f8a8385010111156128e45760008081fd5b818a84018c83013760009181018b0191909152835250918701919087019061287f565b80985050505050505050509250925092565b6000806040838503121561292c57600080fd5b50508035926020909101359150565b6020808252825182820181905260009190848201906040850190845b8181101561297c5783516001600160a01b031683529284019291840191600101612957565b50909695505050505050565b6000806040838503121561299b57600080fd5b823591506126d3602084016125e1565b60208082526012908201527110dbdb9d1c9858dd081a5cc81c185d5cd95960721b604082015260600190565b602080825260169082015275141c9bda9958dd081b9bdd0818d85b18dd5b185d195960521b604082015260600190565b6020808252601190820152702737ba10383937b532b1ba1037bbb732b960791b604082015260600190565b634e487b7160e01b600052603260045260246000fd5b634e487b7160e01b600052601160045260246000fd5b600060ff821660ff8103612a7457612a74612a48565b60010192915050565b6020808252600e908201526d139bdd08185d5d1a1bdc9a5e995960921b604082015260600190565b8181038181111561201457612014612a48565b600060018201612aca57612aca612a48565b5060010190565b634e487b7160e01b600052603160045260246000fd5b81835281816020850137506000828201602090810191909152601f909101601f19169091010190565b606081526000612b24606083018789612ae7565b8281036020840152612b37818688612ae7565b9150508260408301529695505050505050565b60548110612b6857634e487b7160e01b600052602160045260246000fd5b9052565b8281526040810161205e6020830184612b4a565b600060208284031215612b9257600080fd5b5051919050565b60008151808452602080850194506020840160005b83811015612bca57815187529582019590820190600101612bae565b509495945050505050565b60208152600061205e6020830184612b99565b838152606060208201526000612c016060830185612b99565b905063ffffffff60e01b8316604083015294935050505056fe9e7b61f58c47dc699ac88507c4f5bb9f121c03808c5676a8078fe583e46497019e7b61f58c47dc699ac88507c4f5bb9f121c03808c5676a8078fe583e4649700a2646970667358221220303195ffc990cdb26edb6fc98cc33d3d0d85e38d3c2f1a1a6067ef757f0fbfd364736f6c63430008180033",
  "linkReferences": {},
  "deployedLinkReferences": {}
}